:100000000EC032C031C030C02FC000C92DC02CC0BE
:100010002BC02AC029C028C027C026C025C0112453
:100020001FBECFE5D2E0DEBFCDBF84B78093E30033
:1000300014BE88E10FB6F89481BD11BC0FBE10E06C
:10004000A0E6B0E0E2E4FAE102C005900D92A23829
:10005000B107D9F710E0A2E8B0E001C01D92A33EBD
:10006000B107E1F789D3EBCCCBCFAC011816190659
:100070007CF420E090E289EF00008150E9F7915094
:10008000D1F72F5F822F90E0841795079CF3089596
:1000900008951092850010928400109287001092AB
:1000A0008600109289001092880010928B001092A6
:1000B0008A0010928D0010928C0010928F00109286
:1000C0008E00109291001092900010929300109266
:1000D0009200109295001092940010929700109246
:1000E0009600109299001092980010929B00109226
:1000F0009A00089581E090E09093850080938400B9
:100100009093870080938600909389008093880065
:1001100090938B0080938A0090938D0080938C0045
:1001200090938F0080938E00909391008093900025
:100130009093930080939200909395008093940005
:1001400090939700809396009093990080939800E5
:1001500090939B0080939A00089581E087B9369A26
:100160003699FECF24B145B1942F80E030E0282BA2
:10017000392BC9010895809184009091850020E079
:10018000019709F021E08091860090918700019706
:1001900009F467C08091880090918900019709F463
:1001A00068C080918A0090918B00019709F469C022
:1001B00080918C0090918D00019709F46AC0809124
:1001C0008E0090918F00019709F46BC08091900090
:1001D00090919100019709F46CC0809192009091E8
:1001E0009300019709F46DC080919400909195005F
:1001F000019709F46EC08091960090919700019745
:1002000009F46FC08091980090919900019709F4CA
:1002100070C080919A0090919B00019709F471C081
:1002200080918200909183000A97CCF0F894222369
:10023000A1F017BA85B7877E806185BF85B78062D8
:1002400085BF889585B78F7D85BF85B7806285BF5F
:100250007894889585B78F7D85BF7894089520E040
:10026000E5CF20E08091880090918900019709F006
:1002700098CF20E080918A0090918B00019709F03F
:1002800097CF20E080918C0090918D00019709F02C
:1002900096CF20E080918E0090918F00019709F019
:1002A00095CF20E08091900090919100019709F006
:1002B00094CF20E08091920090919300019709F0F3
:1002C00093CF20E08091940090919500019709F0E0
:1002D00092CF20E08091960090919700019709F0CD
:1002E00091CF20E08091980090919900019709F0BA
:1002F00090CF20E080919A0090919B00019709F0A7
:100300008FCF20E08DCF0F931F933ADB00917900C0
:1003100010917A0020917B0030917C0068EE73E0B0
:1003200081DAAC01662757FD6095762F400F511F8B
:10033000621F731F403283E0580780E0680780E047
:1003400078070CF4A2C181E090E09093850080933F
:10035000840016DB0091790010917A0020917B00D7
:1003600030917C0068EE73E05DDAAC01662757FDE2
:100370006095762F400F511F621F731F403283E03C
:10038000580780E0680780E078070CF473C181E0CB
:1003900090E09093870080938600F2DA00917900D4
:1003A00010917A0020917B0030917C0068EE73E020
:1003B00039DAAC01662757FD6095762F400F511F43
:1003C000621F731F403283E0580780E0680780E0B7
:1003D00078070CF4C6C181E090E090938900809387
:1003E0008800CEDA0091790010917A0020917B008C
:1003F00030917C0068EE73E015DAAC01662757FD9A
:100400006095762F400F511F621F731F403283E0AB
:10041000580780E0680780E078070CF497C181E016
:1004200090E090938B0080938A00AADA0091790083
:1004300010917A0020917B0030917C0068EE73E08F
:10044000F1D9AC01662757FD6095762F400F511FFB
:10045000621F731F403283E0580780E0680780E026
:1004600078070CF468C181E090E090938D00809350
:100470008C0086DA0091790010917A0020917B003F
:1004800030917C0068EE73E0CDD9AC01662757FD52
:100490006095762F400F511F621F731F403283E01B
:1004A000580780E0680780E078070CF439C181E0E4
:1004B00090E090938F0080938E0062DA0091790033
:1004C00010917A0020917B0030917C0068EE73E0FF
:1004D000A9D9AC01662757FD6095762F400F511FB3
:1004E000621F731F403283E0580780E0680780E096
:1004F00078070CF40AC181E090E09093910080931A
:1005000090003EDA0091790010917A0020917B00F2
:1005100030917C0068EE73E085D9AC01662757FD09
:100520006095762F400F511F621F731F403283E08A
:10053000580780E0680780E078070CF4DBC081E0B2
:1005400090E090939300809392001ADA00917900E2
:1005500010917A0020917B0030917C0068EE73E06E
:1005600061D9AC01662757FD6095762F400F511F6A
:10057000621F731F403283E0580780E0680780E005
:1005800078070CF4ACC081E090E0909395008093E4
:100590009400F6D90091790010917A0020917B00A7
:1005A00030917C0068EE73E03DD9AC01662757FDC1
:1005B0006095762F400F511F621F731F403283E0FA
:1005C000580780E0680780E078070CF47DC081E080
:1005D00090E09093970080939600D2D90091790093
:1005E00010917A0020917B0030917C0068EE73E0DE
:1005F00019D9AC01662757FD6095762F400F511F22
:10060000621F731F403283E0580780E0680780E074
:1006100078070CF44EC081E090E0909399008093AD
:100620009800AED90091790010917A0020917B005A
:1006300030917C0068EE73E0F5D8AC01662757FD79
:100640006095762F400F511F621F731F403283E069
:10065000580780E0680780E0780714F510929B0047
:1006600010929A00455F514060407040CCF41F9159
:100670000F9108951092870010928600455F5140B7
:10068000604070400CF489CE82CE109285001092AA
:100690008400455F5140604070400CF45ACE53CE08
:1006A00081E090E090939B0080939A001F910F91BE
:1006B00008951092990010929800455F5140604053
:1006C00070400CF4AECFA7CF109297001092960016
:1006D000455F5140604070400CF47FCF78CF10925E
:1006E000950010929400455F5140604070400CF4BA
:1006F00050CF49CF1092930010929200455F514025
:10070000604070400CF421CF1ACF109291001092EB
:100710009000455F5140604070400CF4F2CEEBCE4B
:1007200010928F0010928E00455F514060407040E3
:100730000CF4C3CEBCCE10928D0010928C00455F9D
:100740005140604070400CF494CE8DCE10928B00DE
:1007500010928A00455F5140604070400CF465CEB5
:100760005ECE1092890010928800455F5140604033
:1007700070400CF436CE2FCE0F931F93CF93DF93A0
:1007800084B78093E30014BE88E10FB6F89481BD6E
:1007900011BC0FBE80E886B985B7806485BF1ABCDE
:1007A00085E083BF82E089BF8BE187BB88BB7894FB
:1007B00029E288E190E00FB6F894A89581BD0FBEBC
:1007C00021BD41E020E030E0C1E0D0E002C02F5F79
:1007D0003F4F2C3031055CF4F901EE0FFF1FEC5751
:1007E000FF4F80819181019791F740E0F0CF809198
:1007F0008200909183000A970CF440E0F89444231F
:10080000A1F017BA85B7877E806185BF85B7806202
:1008100085BF889585B78F7D85BF85B7806285BF89
:100820007894889585B78F7D85BF78948091840072
:1008300090918500019709F423C48091B4009091B0
:10084000B500181619064CF48091B4009091B500CB
:100850000A979093B5008093B4000091B400109172
:10086000B5008ED860E072E0DDD7801791070CF4F8
:10087000F0C310929D0010929C0017BA2091610065
:1008800080919C0090919D0040916D008095909585
:1008900002C0880F991F4A95E2F7AE0102C0440FCB
:1008A000551F2A95E2F7842B88BB20916100809127
:1008B0006D00AE0102C0440F551F8A95E2F7CA01D0
:1008C000AE0102C0440F551F2A95E2F7842B87BB67
:1008D0008091860090918700019709F4BFC38091B1
:1008E000B6009091B700181619064CF48091B60026
:1008F0009091B7000A979093B7008093B60000914B
:10090000B6001091B7003CD860E072E08BD780173A
:1009100091070CF499C310929F0010929E0017BA91
:100920002091620080919E0090919F0040916E0006
:100930008095909502C0880F991F4A95E2F7AE0105
:1009400002C0440F551F2A95E2F7842B88BB2091E3
:10095000620080916E00AE0102C0440F551F8A955F
:10096000E2F7CA01AE0102C0440F551F2A95E2F713
:10097000842B87BB8091880090918900019709F4AE
:10098000A3C38091B8009091B900181619064CF4D1
:100990008091B8009091B9000A979093B900809324
:1009A000B8000091B8001091B900EAD760E072E099
:1009B00039D7801791070CF442C31092A10010920E
:1009C000A00017BA209163008091A0009091A1002F
:1009D00040916F008095909502C0880F991F4A95AD
:1009E000E2F7AE0102C0440F551F2A95E2F7842BAF
:1009F00088BB2091630080916F00AE0102C0440F5C
:100A0000551F8A95E2F7CA01AE0102C0440F551F77
:100A10002A95E2F7842B87BB80918A0090918B0006
:100A2000019709F43FC38091BA009091BB0018165A
:100A300019064CF48091BA009091BB000A979093EC
:100A4000BB008093BA000091BA001091BB0098D708
:100A500060E072E0E7D6801791070CF4EBC21092C9
:100A6000A3001092A20017BA209164008091A20006
:100A70009091A300409170008095909502C0880FDE
:100A8000991F4A95E2F7AE0102C0440F551F2A95FF
:100A9000E2F7842B88BB2091640080917000AE0146
:100AA00002C0440F551F8A95E2F7CA01AE0102C089
:100AB000440F551F2A95E2F7842B87BB80918C0049
:100AC00090918D00019709F423C38091BC0090910F
:100AD000BD00181619064CF48091BC009091BD0021
:100AE0000A979093BD008093BC000091BC001091C8
:100AF000BD0046D760E072E095D6801791070CF4F0
:100B000094C21092A5001092A40017BA209165001B
:100B10008091A4009091A5004091710080959095DE
:100B200002C0880F991F4A95E2F7AE0102C0440F38
:100B3000551F2A95E2F7842B88BB20916500809190
:100B40007100AE0102C0440F551F8A95E2F7CA0139
:100B5000AE0102C0440F551F2A95E2F7842B87BBD4
:100B600080918E0090918F00019709F4BFC280910F
:100B7000BE009091BF00181619064CF48091BE007B
:100B80009091BF000A979093BF008093BE000091A0
:100B9000BE001091BF00F4D660E072E043D680172B
:100BA00091070CF43DC21092A7001092A60017BA4C
:100BB000209166008091A6009091A700409172005C
:100BC0008095909502C0880F991F4A95E2F7AE0173
:100BD00002C0440F551F2A95E2F7842B88BB209151
:100BE000660080917200AE0102C0440F551F8A95C5
:100BF000E2F7CA01AE0102C0440F551F2A95E2F781
:100C0000842B87BB8091900090919100019709F40B
:100C1000A3C28091C0009091C100181619064CF42F
:100C20008091C0009091C1000A979093C100809379
:100C3000C0000091C0001091C100A2D660E072E037
:100C4000F1D5801791070CF4E6C11092A90010921B
:100C5000A80017BA209167008091A8009091A90080
:100C6000409173008095909502C0880F991F4A9516
:100C7000E2F7AE0102C0440F551F2A95E2F7842B1C
:100C800088BB2091670080917300AE0102C0440FC1
:100C9000551F8A95E2F7CA01AE0102C0440F551FE5
:100CA0002A95E2F7842B87BB809192009091930064
:100CB000019709F43FC28091C2009091C3001816B9
:100CC00019064CF48091C2009091C3000A9790934A
:100CD000C3008093C2000091C2001091C30050D69F
:100CE00060E072E09FD5801791070CF48FC11092DD
:100CF000AB001092AA0017BA209168008091AA0058
:100D00009091AB00409174008095909502C0880F3F
:100D1000991F4A95E2F7AE0102C0440F551F2A956C
:100D2000E2F7842B88BB2091680080917400AE01AB
:100D300002C0440F551F8A95E2F7CA01AE0102C0F6
:100D4000440F551F2A95E2F7842B87BB80919400AE
:100D500090919500019709F423C28091C40090916D
:100D6000C500181619064CF48091C4009091C50076
:100D70000A979093C5008093C4000091C40010911D
:100D8000C500FED560E072E04DD5801791070CF4E8
:100D900038C11092AD001092AC0017BA20916900D2
:100DA0008091AC009091AD00409175008095909538
:100DB00002C0880F991F4A95E2F7AE0102C0440FA6
:100DC000551F2A95E2F7842B88BB209169008091FA
:100DD0007500AE0102C0440F551F8A95E2F7CA01A3
:100DE000AE0102C0440F551F2A95E2F7842B87BB42
:100DF0008091960090919700019709F4BFC180916E
:100E0000C6009091C700181619064CF48091C600D0
:100E10009091C7000A979093C7008093C6000091F5
:100E2000C6001091C700ACD560E072E0FBD480171B
:100E300091070CF4E1C01092AF001092AE0017BA07
:100E400020916A008091AE009091AF0040917600B1
:100E50008095909502C0880F991F4A95E2F7AE01E0
:100E600002C0440F551F2A95E2F7842B88BB2091BE
:100E70006A0080917600AE0102C0440F551F8A952A
:100E8000E2F7CA01AE0102C0440F551F2A95E2F7EE
:100E9000842B87BB8091980090919900019709F469
:100EA000A3C18091C8009091C900181619064CF48E
:100EB0008091C8009091C9000A979093C9008093CF
:100EC000C8000091C8001091C9005AD560E072E0D6
:100ED000A9D4801791070CF485C01092B10010922C
:100EE000B00017BA20916B008091B0009091B100D2
:100EF000409177008095909502C0880F991F4A9580
:100F0000E2F7AE0102C0440F551F2A95E2F7842B89
:100F100088BB20916B0080917700AE0102C0440F26
:100F2000551F8A95E2F7CA01AE0102C0440F551F52
:100F30002A95E2F7842B87BB80919A0090919B00C1
:100F4000019709F43FC18091CA009091CB00181617
:100F500019064CF48091CA009091CB000A979093A7
:100F6000CB008093CA000091CA001091CB0008D535
:100F700060E072E057D480179107CCF5D093B300AE
:100F8000C093B20017BA20916C008091B20090918A
:100F9000B300409178008095909502C0880F991F0A
:100FA0004A95E2F7AE0102C0440F551F2A95E2F7B9
:100FB000842B88BB20916C0080917800AE0102C028
:100FC000440F551F8A95E2F7CA01AE0102C0440FD3
:100FD000551F2A95E2F7842B87BBA89541E020E0B6
:100FE00030E0F7CBD093B100C093B0007ACF10922D
:100FF000B3001092B200C6CFD093AF00C093AE0042
:101000001ECFD093AD00C093AC00C7CED093AB0041
:10101000C093AA0070CED093A900C093A80019CEA7
:10102000D093A700C093A600C2CDD093A500C093D3
:10103000A4006BCDD093A300C093A20014CDD09395
:10104000A100C093A000BDCCD0939F00C0939E0090
:1010500066CCD0939D00C0939C000FCC8091B600CD
:101060009091B700845F91400CF049CC8091B6001C
:101070009091B7000A969093B7008093B6003FCC4A
:101080008091B4009091B500845F91400CF0E5CB65
:101090008091B4009091B5000A969093B50080932A
:1010A000B400DBCB8091BA009091BB00845F91408B
:1010B0000CF0C9CC8091BA009091BB000A96909335
:1010C000BB008093BA00BFCC8091B8009091B9006A
:1010D000845F91400CF065CC8091B8009091B9008C
:1010E0000A969093B9008093B8005BCC8091BE00C3
:1010F0009091BF00845F91400CF049CD8091BE007B
:101100009091BF000A969093BF008093BE003FCDA0
:101110008091BC009091BD00845F91400CF0E5CCC3
:101120008091BC009091BD000A969093BD00809381
:10113000BC00DBCC8091C2009091C300845F9140E1
:101140000CF0C9CD8091C2009091C3000A96909393
:10115000C3008093C200BFCD8091C0009091C100B8
:10116000845F91400CF065CD8091C0009091C100EA
:101170000A969093C1008093C0005BCD8091C60019
:101180009091C700845F91400CF049CE8091C600D9
:101190009091C7000A969093C7008093C6003FCEF7
:1011A0008091C4009091C500845F91400CF0E5CD22
:1011B0008091C4009091C5000A969093C5008093D9
:1011C000C400DBCD8091CA009091CB00845F914038
:1011D0000CF0C9CE8091CA009091CB000A969093F2
:1011E000CB008093CA00BFCE8091C8009091C90007
:1011F000845F91400CF065CE8091C8009091C90049
:101200000A969093C9008093C8005BCE1F920F92FC
:101210000FB60F9211240F931F932F933F934F9369
:101220005F936F937F938F939F93AF93BF93EF934E
:10123000FF938091D0009091D100A091D200B09105
:10124000D3000196A11DB11D8093D0009093D100D1
:10125000A093D200B093D3006091D0007091D100E0
:101260008091D2009091D30025E030E040E050E042
:10127000ECD2611571058105910509F0F0C181E09D
:1012800087B9369A3699FECF84B145B1342F20E024
:1012900090E0282B392B205137420CF480C28091EA
:1012A000820090918300843691052CF401969093EE
:1012B0008300809382008091790090917A00A091C0
:1012C0007B00B0917C0084569040A040B040809359
:1012D000790090937A00A0937B00B0937C0080917A
:1012E000790090917A00A0917B00B0917C008951A7
:1012F0009C4FAF4FBF4F0CF045C242D300917900D5
:1013000010917A0020917B0030917C0068EE73E0B0
:1013100089D2AC01662757FD6095762F400F511F8B
:10132000621F731F403283E0580780E0680780E047
:1013300078070CF41CC281E090E0909385008093C4
:1013400084001ED30091790010917A0020917B00D7
:1013500030917C0068EE73E065D2AC01662757FDE2
:101360006095762F400F511F621F731F403283E03C
:10137000580780E0680780E078070CF4EDC181E051
:1013800090E09093870080938600FAD200917900D4
:1013900010917A0020917B0030917C0068EE73E020
:1013A00041D2AC01662757FD6095762F400F511F43
:1013B000621F731F403283E0580780E0680780E0B7
:1013C00078070CF4BEC181E090E09093890080938F
:1013D0008800D6D20091790010917A0020917B008C
:1013E00030917C0068EE73E01DD2AC01662757FD9A
:1013F0006095762F400F511F621F731F403283E0AC
:10140000580780E0680780E078070CF48FC181E01E
:1014100090E090938B0080938A00B2D20091790083
:1014200010917A0020917B0030917C0068EE73E08F
:10143000F9D1AC01662757FD6095762F400F511FFB
:10144000621F731F403283E0580780E0680780E026
:1014500078070CF460C181E090E090938D00809358
:101460008C008ED20091790010917A0020917B003F
:1014700030917C0068EE73E0D5D1AC01662757FD52
:101480006095762F400F511F621F731F403283E01B
:10149000580780E0680780E078070CF431C181E0EC
:1014A00090E090938F0080938E006AD20091790033
:1014B00010917A0020917B0030917C0068EE73E0FF
:1014C000B1D1AC01662757FD6095762F400F511FB3
:1014D000621F731F403283E0580780E0680780E096
:1014E00078070CF402C181E090E090939100809322
:1014F000900046D20091790010917A0020917B00F3
:1015000030917C0068EE73E08DD1AC01662757FD09
:101510006095762F400F511F621F731F403283E08A
:10152000580780E0680780E078070CF4D3C081E0BA
:1015300090E0909393008093920022D200917900E2
:1015400010917A0020917B0030917C0068EE73E06E
:1015500069D1AC01662757FD6095762F400F511F6A
:10156000621F731F403283E0580780E0680780E005
:1015700078070CF4A4C081E090E0909395008093EC
:101580009400FED10091790010917A0020917B00A7
:1015900030917C0068EE73E045D1AC01662757FDC1
:1015A0006095762F400F511F621F731F403283E0FA
:1015B000580780E0680780E078070CF475C081E088
:1015C00090E09093970080939600DAD10091790093
:1015D00010917A0020917B0030917C0068EE73E0DE
:1015E00021D1AC01662757FD6095762F400F511F22
:1015F000621F731F403283E0580780E0680780E075
:1016000078070CF446C081E090E0909399008093B5
:101610009800B6D10091790010917A0020917B005A
:1016200030917C0068EE73E0FDD0AC01662757FD79
:101630006095762F400F511F621F731F403283E069
:10164000580780E0680780E07807E4F410929B0078
:1016500010929A00455F5140604070409CF4FF91A9
:10166000EF91BF91AF919F918F917F916F915F911A
:101670004F913F912F911F910F910F900FBE0F909F
:101680001F90189581E090E090939B0080939A00C2
:10169000E6CF1092990010929800455F514060404B
:1016A00070400CF4B6CFAFCF109297001092960016
:1016B000455F5140604070400CF487CF80CF10925E
:1016C000950010929400455F5140604070400CF4CA
:1016D00058CF51CF1092930010929200455F514025
:1016E000604070400CF429CF22CF109291001092EC
:1016F0009000455F5140604070400CF4FACEF3CE4C
:1017000010928F0010928E00455F514060407040F3
:101710000CF4CBCEC4CE10928D0010928C00455F9D
:101720005140604070400CF49CCE95CE10928B00DE
:1017300010928A00455F5140604070400CF46DCEBD
:1017400066CE1092890010928800455F514060403B
:1017500070400CF43ECE37CE109287001092860077
:10176000455F5140604070400CF40FCE08CE10929F
:10177000850010928400455F5140604070400CF439
:10178000E0CDD9CD88E19CEFAFEFBFEF809379003A
:1017900090937A00A0937B00B0937C00AECD109222
:1017A000830010928200ECD00091790010917A00B1
:1017B00020917B0030917C006AE070E033D0AA2752
:1017C00097FDA095BA2F800F911FA21FB31F809382
:1017D000790090937A00A0937B00B0937C00809175
:1017E000790090917A00A0917B00B0917C008436C2
:1017F0009105A105B1050CF480CDC2D068EE73E06F
:1018000011D024E630E0281B390B442737FD4095E2
:10181000542F2093790030937A0040937B005093AB
:101820007C006BCD97FB092E07260AD077FD04D0EC
:1018300027D006D000201AF4709561957F4F089547
:10184000F6F7909581959F4F089597FB092E0526F1
:101850000ED057FD04D028D00AD0001C38F4509583
:101860004095309521953F4F4F4F5F4F0895F6F7C4
:1018700090958095709561957F4F8F4F9F4F0895FC
:10188000AA1BBB1B51E107C0AA1FBB1FA617B707A6
:1018900010F0A61BB70B881F991F5A95A9F78095C2
:1018A0009095BC01CD010895A1E21A2EAA1BBB1B85
:1018B000FD010DC0AA1FBB1FEE1FFF1FA217B3071C
:1018C000E407F50720F0A21BB30BE40BF50B661F32
:1018D000771F881F991F1A9469F7609570958095F6
:1018E00090959B01AC01BD01CF010895A0E0B0E04F
:1018F000EBE7FCE075C0EC01A880B980CA80DB8012
:10190000A114B104C104D10441F484E2A82E89EDEC
:10191000B82E8BE5C82E87E0D82EC601B5012DE183
:1019200033EF41E050E091DF27EA31E440E050E05E
:1019300036D07B018C01C601B5012DE133EF41E0CA
:1019400050E083DFCA01B9012CEE34EF4FEF5FEFB7
:1019500026D06E0D7F1D801F911F97FF04C0615020
:10196000704080409048688379838A839B839B0181
:101970003F77C901CDB7DEB7EAE04EC0B7DF0895C3
:101980008DE790E0B3DF0895A0E0B0E080937D00A4
:1019900090937E00A0937F00B09380000895FF276E
:1019A000EE27BB27AA2760FF04C0A20FB31FE41FC6
:1019B000F51F220F331F441F551F96958795779566
:1019C000679589F70097760771F7CF01BD010895F4
:1019D0002F923F924F925F926F927F928F929F923F
:1019E000AF92BF92CF92DF92EF92FF920F931F932D
:1019F000CF93DF93CDB7DEB7CA1BDB0B0FB6F894DE
:101A0000DEBF0FBECDBF09942A88398848885F841D
:101A10006E847D848C849B84AA84B984C884DF808E
:101A2000EE80FD800C811B81AA81B981CE0FD11D72
:101A30000FB6F894DEBF0FBECDBFED010895F89448
:021A4000FFCFD6
:101A42000100000001010103030304040401030473
:101A520000030400010400010318FCFFFF01000061
:021A6200000082
:00000001FF
